{
  "contractName": "CoShoe",
  "abi": [
    {
      "constant": true,
      "inputs": [
        {
          "name": "",
          "type": "uint256"
        }
      ],
      "name": "shoes",
      "outputs": [
        {
          "name": "owner",
          "type": "address"
        },
        {
          "name": "name",
          "type": "string"
        },
        {
          "name": "image",
          "type": "string"
        },
        {
          "name": "sold",
          "type": "bool"
        }
      ],
      "payable": false,
      "stateMutability": "view",
      "type": "function"
    },
    {
      "inputs": [],
      "payable": false,
      "stateMutability": "nonpayable",
      "type": "constructor"
    },
    {
      "constant": true,
      "inputs": [],
      "name": "getNumberofTokens",
      "outputs": [
        {
          "name": "counts",
          "type": "uint256"
        }
      ],
      "payable": false,
      "stateMutability": "view",
      "type": "function"
    },
    {
      "constant": false,
      "inputs": [
        {
          "name": "_name",
          "type": "string"
        },
        {
          "name": "_image",
          "type": "string"
        }
      ],
      "name": "buyShoe",
      "outputs": [],
      "payable": true,
      "stateMutability": "payable",
      "type": "function"
    },
    {
      "constant": true,
      "inputs": [],
      "name": "checkPurchases",
      "outputs": [
        {
          "name": "",
          "type": "bool[]"
        }
      ],
      "payable": false,
      "stateMutability": "view",
      "type": "function"
    }
  ],
  "bytecode": "0x60806040526706f05b59d3b200006000556000600155600060025534801561002657600080fd5b506000600190505b6064811161016c57600360405180608001604052803373ffffffffffffffffffffffffffffffffffffffff168152602001604051806020016040528060008152508152602001604051806020016040528060008152508152602001600015158152509080600181540180825580915050906001820390600052602060002090600402016000909192909190915060008201518160000160006101000a81548173ffffffffffffffffffffffffffffffffffffffff021916908373ffffffffffffffffffffffffffffffffffffffff160217905550602082015181600101908051906020019061011e929190610172565b50604082015181600201908051906020019061013b929190610172565b5060608201518160030160006101000a81548160ff021916908315150217905550505050808060010191505061002e565b50610217565b828054600181600116156101000203166002900490600052602060002090601f016020900481019282601f106101b357805160ff19168380011785556101e1565b828001600101855582156101e1579182015b828111156101e05782518255916020019190600101906101c5565b5b5090506101ee91906101f2565b5090565b61021491905b808211156102105760008160009055506001016101f8565b5090565b90565b6108ce806102266000396000f3fe60806040526004361061003f5760003560e01c80634fb7bb1314610044578063540a2f4f1461006f578063558a2b8b146101c1578063607473cf1461022d575b600080fd5b34801561005057600080fd5b5061005961038b565b6040518082815260200191505060405180910390f35b6101bf6004803603604081101561008557600080fd5b81019080803590602001906401000000008111156100a257600080fd5b8201836020820111156100b457600080fd5b803590602001918460018302840111640100000000831117156100d657600080fd5b91908080601f016020809104026020016040519081016040528093929190818152602001838380828437600081840152601f19601f8201169050808301925050505050505091929192908035906020019064010000000081111561013957600080fd5b82018360208201111561014b57600080fd5b8035906020019184600183028401116401000000008311171561016d57600080fd5b91908080601f016020809104026020016040519081016040528093929190818152602001838380828437600081840152601f19601f820116905080830192505050505050509192919290505050610398565b005b3480156101cd57600080fd5b506101d66105a5565b6040518080602001828103825283818151815260200191508051906020019060200280838360005b838110156102195780820151818401526020810190506101fe565b505050509050019250505060405180910390f35b34801561023957600080fd5b506102666004803603602081101561025057600080fd5b8101908080359060200190929190505050610663565b604051808573ffffffffffffffffffffffffffffffffffffffff1673ffffffffffffffffffffffffffffffffffffffff168152602001806020018060200184151515158152602001838103835286818151815260200191508051906020019080838360005b838110156102e65780820151818401526020810190506102cb565b50505050905090810190601f1680156103135780820380516001836020036101000a031916815260200191505b50838103825285818151815260200191508051906020019080838360005b8381101561034c578082015181840152602081019050610331565b50505050905090810190601f1680156103795780820380516001836020036101000a031916815260200191505b50965050505050505060405180910390f35b6000600380549050905090565b60038054905060015410610414576040517f08c379a00000000000000000000000000000000000000000000000000000000081526004018080602001828103825260188152602001807f6578636565646564206e756d626572206f662073686f6573000000000000000081525060200191505060405180910390fd5b600054341461048b576040517f08c379a000000000000000000000000000000000000000000000000000000000815260040180806020018281038252601b8152602001807f56616c7565206973206e6f7420657175616c20746f207072696365000000000081525060200191505060405180910390fd5b60006001805401905033600382815481106104a257fe5b906000526020600020906004020160000160006101000a81548173ffffffffffffffffffffffffffffffffffffffff021916908373ffffffffffffffffffffffffffffffffffffffff16021790555082600382815481106104ff57fe5b906000526020600020906004020160010190805190602001906105239291906107fd565b50816003828154811061053257fe5b906000526020600020906004020160020190805190602001906105569291906107fd565b5060016003828154811061056657fe5b906000526020600020906004020160030160006101000a81548160ff021916908315150217905550600160008154809291906001019190505550505050565b60608060008090505b60038054905081101561065b573373ffffffffffffffffffffffffffffffffffffffff16600382815481106105df57fe5b906000526020600020906004020160000160009054906101000a900473ffffffffffffffffffffffffffffffffffffffff1673ffffffffffffffffffffffffffffffffffffffff16141561064e57600182828151811061063b57fe5b6020026020010190151590811515815250505b80806001019150506105ae565b508091505090565b6003818154811061067057fe5b90600052602060002090600402016000915090508060000160009054906101000a900473ffffffffffffffffffffffffffffffffffffffff1690806001018054600181600116156101000203166002900480601f0160208091040260200160405190810160405280929190818152602001828054600181600116156101000203166002900480156107425780601f1061071757610100808354040283529160200191610742565b820191906000526020600020905b81548152906001019060200180831161072557829003601f168201915b505050505090806002018054600181600116156101000203166002900480601f0160208091040260200160405190810160405280929190818152602001828054600181600116156101000203166002900480156107e05780601f106107b5576101008083540402835291602001916107e0565b820191906000526020600020905b8154815290600101906020018083116107c357829003601f168201915b5050505050908060030160009054906101000a900460ff16905084565b828054600181600116156101000203166002900490600052602060002090601f016020900481019282601f1061083e57805160ff191683800117855561086c565b8280016001018555821561086c579182015b8281111561086b578251825591602001919060010190610850565b5b509050610879919061087d565b5090565b61089f91905b8082111561089b576000816000905550600101610883565b5090565b9056fea165627a7a72305820b213e7fe517245a278a5e4ea08970ee64868489187cb026a8fc4076bf2769f2b0029",
  "source": "pragma solidity^0.5.0;\r\n\r\ncontract CoShoe{\r\n\r\n    struct Shoe {\r\n        address payable owner; //address of the owner\r\n        string name; //name of owner\r\n        string image; //url of the image\r\n        bool sold;\r\n    }\r\n\r\n    uint256 price = 5*10**17;\r\n    uint256 shoesSold = 0;\r\n    uint256 count = 0;\r\n\r\n    Shoe[] public shoes;\r\n\r\n    constructor() public {\r\n        for (uint i = 1; i <= 100; i++) {\r\n        shoes.push(Shoe(msg.sender, \"\",\"\",false));\r\n        }\r\n    }\r\n\r\n    function getNumberofTokens() public view returns(uint counts) {\r\n        return shoes.length;\r\n    }\r\n\r\n    function buyShoe(string memory _name, string memory _image) public payable { //used to be external payable\r\n\r\n        require(shoesSold < shoes.length, \"exceeded number of shoes\");\r\n        require(msg.value == price, \"Value is not equal to price\");\r\n        uint256 ii = shoesSold + 1;\r\n    \r\n        shoes[ii].owner = msg.sender;\r\n        shoes[ii].name = _name;\r\n        shoes[ii].image = _image;\r\n        shoes[ii].sold = true;\r\n        //shoes.push(Shoe(shoes[ii].owner, shoes[ii].name,shoes[ii].image,shoes[ii].sold));\r\n        shoesSold++;\r\n\r\n    }\r\n\r\n    function checkPurchases() external view returns (bool[] memory){\r\n        bool[] memory checkPurchase;\r\n        for (uint256 i = 0; i < shoes.length; i++){\r\n            if (shoes[i].owner == msg.sender){\r\n                checkPurchase[i] = true;\r\n            }\r\n        }\r\n        return checkPurchase;\r\n    }\r\n\r\n}",
  "sourcePath": "/home/nyasha/Question_1/contracts/CoShoe.sol",
  "compiler": {
    "name": "solc",
    "version": "0.5.8+commit.23d335f2.Emscripten.clang"
  },
  "schemaVersion": "3.0.11",
  "updatedAt": "2019-08-04T19:47:21.568Z",
  "devdoc": {
    "methods": {}
  },
  "userdoc": {
    "methods": {}
  }
}